{
  "_format": "hh-sol-artifact-1",
  "contractName": "DegenToken",
  "sourceName": "contracts/DegenToken.sol",
  "abi": [
    {
      "inputs": [],
      "stateMutability": "nonpayable",
      "type": "constructor"
    },
    {
      "inputs": [],
      "name": "IncorrectbetEntryPrice",
      "type": "error"
    },
    {
      "inputs": [],
      "name": "NoParticipants",
      "type": "error"
    },
    {
      "anonymous": false,
      "inputs": [
        {
          "indexed": true,
          "internalType": "address",
          "name": "owner",
          "type": "address"
        },
        {
          "indexed": true,
          "internalType": "address",
          "name": "spender",
          "type": "address"
        },
        {
          "indexed": false,
          "internalType": "uint256",
          "name": "value",
          "type": "uint256"
        }
      ],
      "name": "Approval",
      "type": "event"
    },
    {
      "anonymous": false,
      "inputs": [
        {
          "indexed": true,
          "internalType": "address",
          "name": "from",
          "type": "address"
        },
        {
          "indexed": true,
          "internalType": "address",
          "name": "to",
          "type": "address"
        },
        {
          "indexed": false,
          "internalType": "uint256",
          "name": "value",
          "type": "uint256"
        }
      ],
      "name": "Transfer",
      "type": "event"
    },
    {
      "inputs": [
        {
          "internalType": "uint256",
          "name": "",
          "type": "uint256"
        }
      ],
      "name": "ListOfPlayers",
      "outputs": [
        {
          "internalType": "address",
          "name": "",
          "type": "address"
        }
      ],
      "stateMutability": "view",
      "type": "function"
    },
    {
      "inputs": [
        {
          "internalType": "string",
          "name": "_name",
          "type": "string"
        },
        {
          "internalType": "uint256",
          "name": "_price",
          "type": "uint256"
        }
      ],
      "name": "addToMarket",
      "outputs": [],
      "stateMutability": "nonpayable",
      "type": "function"
    },
    {
      "inputs": [
        {
          "internalType": "address",
          "name": "owner",
          "type": "address"
        },
        {
          "internalType": "address",
          "name": "spender",
          "type": "address"
        }
      ],
      "name": "allowance",
      "outputs": [
        {
          "internalType": "uint256",
          "name": "",
          "type": "uint256"
        }
      ],
      "stateMutability": "view",
      "type": "function"
    },
    {
      "inputs": [
        {
          "internalType": "address",
          "name": "spender",
          "type": "address"
        },
        {
          "internalType": "uint256",
          "name": "amount",
          "type": "uint256"
        }
      ],
      "name": "approve",
      "outputs": [
        {
          "internalType": "bool",
          "name": "",
          "type": "bool"
        }
      ],
      "stateMutability": "nonpayable",
      "type": "function"
    },
    {
      "inputs": [
        {
          "internalType": "address",
          "name": "account",
          "type": "address"
        }
      ],
      "name": "balanceOf",
      "outputs": [
        {
          "internalType": "uint256",
          "name": "",
          "type": "uint256"
        }
      ],
      "stateMutability": "view",
      "type": "function"
    },
    {
      "inputs": [
        {
          "internalType": "uint256",
          "name": "value",
          "type": "uint256"
        }
      ],
      "name": "burn",
      "outputs": [],
      "stateMutability": "nonpayable",
      "type": "function"
    },
    {
      "inputs": [],
      "name": "decimals",
      "outputs": [
        {
          "internalType": "uint8",
          "name": "",
          "type": "uint8"
        }
      ],
      "stateMutability": "view",
      "type": "function"
    },
    {
      "inputs": [
        {
          "internalType": "address",
          "name": "spender",
          "type": "address"
        },
        {
          "internalType": "uint256",
          "name": "subtractedValue",
          "type": "uint256"
        }
      ],
      "name": "decreaseAllowance",
      "outputs": [
        {
          "internalType": "bool",
          "name": "",
          "type": "bool"
        }
      ],
      "stateMutability": "nonpayable",
      "type": "function"
    },
    {
      "inputs": [
        {
          "internalType": "address",
          "name": "spender",
          "type": "address"
        },
        {
          "internalType": "uint256",
          "name": "addedValue",
          "type": "uint256"
        }
      ],
      "name": "increaseAllowance",
      "outputs": [
        {
          "internalType": "bool",
          "name": "",
          "type": "bool"
        }
      ],
      "stateMutability": "nonpayable",
      "type": "function"
    },
    {
      "inputs": [
        {
          "internalType": "uint256",
          "name": "",
          "type": "uint256"
        }
      ],
      "name": "marketItems",
      "outputs": [
        {
          "internalType": "uint256",
          "name": "id",
          "type": "uint256"
        },
        {
          "internalType": "address",
          "name": "itemOwner",
          "type": "address"
        },
        {
          "internalType": "string",
          "name": "name",
          "type": "string"
        },
        {
          "internalType": "uint256",
          "name": "price",
          "type": "uint256"
        }
      ],
      "stateMutability": "view",
      "type": "function"
    },
    {
      "inputs": [
        {
          "internalType": "address",
          "name": "to",
          "type": "address"
        },
        {
          "internalType": "uint256",
          "name": "amount",
          "type": "uint256"
        }
      ],
      "name": "mint",
      "outputs": [],
      "stateMutability": "nonpayable",
      "type": "function"
    },
    {
      "inputs": [],
      "name": "name",
      "outputs": [
        {
          "internalType": "string",
          "name": "",
          "type": "string"
        }
      ],
      "stateMutability": "view",
      "type": "function"
    },
    {
      "inputs": [
        {
          "internalType": "uint8",
          "name": "_id",
          "type": "uint8"
        }
      ],
      "name": "redeem",
      "outputs": [],
      "stateMutability": "nonpayable",
      "type": "function"
    },
    {
      "inputs": [],
      "name": "symbol",
      "outputs": [
        {
          "internalType": "string",
          "name": "",
          "type": "string"
        }
      ],
      "stateMutability": "view",
      "type": "function"
    },
    {
      "inputs": [],
      "name": "totalSupply",
      "outputs": [
        {
          "internalType": "uint256",
          "name": "",
          "type": "uint256"
        }
      ],
      "stateMutability": "view",
      "type": "function"
    },
    {
      "inputs": [
        {
          "internalType": "address",
          "name": "to",
          "type": "address"
        },
        {
          "internalType": "uint256",
          "name": "amount",
          "type": "uint256"
        }
      ],
      "name": "transfer",
      "outputs": [
        {
          "internalType": "bool",
          "name": "",
          "type": "bool"
        }
      ],
      "stateMutability": "nonpayable",
      "type": "function"
    },
    {
      "inputs": [
        {
          "internalType": "address",
          "name": "from",
          "type": "address"
        },
        {
          "internalType": "address",
          "name": "to",
          "type": "address"
        },
        {
          "internalType": "uint256",
          "name": "amount",
          "type": "uint256"
        }
      ],
      "name": "transferFrom",
      "outputs": [
        {
          "internalType": "bool",
          "name": "",
          "type": "bool"
        }
      ],
      "stateMutability": "nonpayable",
      "type": "function"
    }
  ],
  "bytecode": "0x60806040523480156200001157600080fd5b506040518060400160405280600581526020017f446567656e0000000000000000000000000000000000000000000000000000008152506040518060400160405280600381526020017f44474e000000000000000000000000000000000000000000000000000000000081525081600390816200008f919062000365565b508060049081620000a1919062000365565b50505033600560006101000a81548173ffffffffffffffffffffffffffffffffffffffff021916908373ffffffffffffffffffffffffffffffffffffffff1602179055506200044c565b600081519050919050565b7f4e487b7100000000000000000000000000000000000000000000000000000000600052604160045260246000fd5b7f4e487b7100000000000000000000000000000000000000000000000000000000600052602260045260246000fd5b600060028204905060018216806200016d57607f821691505b60208210810362000183576200018262000125565b5b50919050565b60008190508160005260206000209050919050565b60006020601f8301049050919050565b600082821b905092915050565b600060088302620001ed7fffffffffffffffffffffffffffffffffffffffffffffffffffffffffffffffff82620001ae565b620001f98683620001ae565b95508019841693508086168417925050509392505050565b6000819050919050565b6000819050919050565b600062000246620002406200023a8462000211565b6200021b565b62000211565b9050919050565b6000819050919050565b620002628362000225565b6200027a62000271826200024d565b848454620001bb565b825550505050565b600090565b6200029162000282565b6200029e81848462000257565b505050565b5b81811015620002c657620002ba60008262000287565b600181019050620002a4565b5050565b601f8211156200031557620002df8162000189565b620002ea846200019e565b81016020851015620002fa578190505b6200031262000309856200019e565b830182620002a3565b50505b505050565b600082821c905092915050565b60006200033a600019846008026200031a565b1980831691505092915050565b600062000355838362000327565b9150826002028217905092915050565b6200037082620000eb565b67ffffffffffffffff8111156200038c576200038b620000f6565b5b62000398825462000154565b620003a5828285620002ca565b600060209050601f831160018114620003dd5760008415620003c8578287015190505b620003d4858262000347565b86555062000444565b601f198416620003ed8662000189565b60005b828110156200041757848901518255600182019150602085019450602081019050620003f0565b8683101562000437578489015162000433601f89168262000327565b8355505b6001600288020188555050505b505050505050565b6122f9806200045c6000396000f3fe608060405234801561001057600080fd5b506004361061010b5760003560e01c806340c10f19116100a25780637bc25d83116100715780637bc25d83146102e157806395d89b41146102fd578063a457c2d71461031b578063a9059cbb1461034b578063dd62ed3e1461037b5761010b565b806340c10f191461024657806342966c681461026257806351f28e141461027e57806370a08231146102b15761010b565b8063242d2948116100de578063242d2948146101ac578063313ce567146101dc57806332271faf146101fa57806339509351146102165761010b565b806306fdde0314610110578063095ea7b31461012e57806318160ddd1461015e57806323b872dd1461017c575b600080fd5b6101186103ab565b60405161012591906113a0565b60405180910390f35b6101486004803603810190610143919061146a565b61043d565b60405161015591906114c5565b60405180910390f35b610166610460565b60405161017391906114ef565b60405180910390f35b6101966004803603810190610191919061150a565b61046a565b6040516101a391906114c5565b60405180910390f35b6101c660048036038101906101c1919061155d565b610499565b6040516101d39190611599565b60405180910390f35b6101e46104d8565b6040516101f191906115d0565b60405180910390f35b610214600480360381019061020f9190611617565b6104e1565b005b610230600480360381019061022b919061146a565b6105e1565b60405161023d91906114c5565b60405180910390f35b610260600480360381019061025b919061146a565b610618565b005b61027c6004803603810190610277919061155d565b6106b6565b005b6102986004803603810190610293919061155d565b61070e565b6040516102a89493929190611644565b60405180910390f35b6102cb60048036038101906102c69190611690565b6107e6565b6040516102d891906114ef565b60405180910390f35b6102fb60048036038101906102f691906117f2565b61082e565b005b61030561095d565b60405161031291906113a0565b60405180910390f35b6103356004803603810190610330919061146a565b6109ef565b60405161034291906114c5565b60405180910390f35b6103656004803603810190610360919061146a565b610a66565b60405161037291906114c5565b60405180910390f35b6103956004803603810190610390919061184e565b610a89565b6040516103a291906114ef565b60405180910390f35b6060600380546103ba906118bd565b80601f01602080910402602001604051908101604052809291908181526020018280546103e6906118bd565b80156104335780601f1061040857610100808354040283529160200191610433565b820191906000526020600020905b81548152906001019060200180831161041657829003601f168201915b5050505050905090565b600080610448610b10565b9050610455818585610b18565b600191505092915050565b6000600254905090565b600080610475610b10565b9050610482858285610ce1565b61048d858585610d6d565b60019150509392505050565b600781815481106104a957600080fd5b906000526020600020016000915054906101000a900473ffffffffffffffffffffffffffffffffffffffff1681565b60006012905090565b6006548160ff161115610529576040517f08c379a00000000000000000000000000000000000000000000000000000000081526004016105209061193a565b60405180910390fd5b61058633600860008460ff16815260200190815260200160002060010160009054906101000a900473ffffffffffffffffffffffffffffffffffffffff16600860008560ff16815260200190815260200160002060030154610d6d565b33600860008360ff16815260200190815260200160002060010160006101000a81548173ffffffffffffffffffffffffffffffffffffffff021916908373ffffffffffffffffffffffffffffffffffffffff16021790555050565b6000806105ec610b10565b905061060d8185856105fe8589610a89565b6106089190611989565b610b18565b600191505092915050565b600560009054906101000a900473ffffffffffffffffffffffffffffffffffffffff1673ffffffffffffffffffffffffffffffffffffffff163373ffffffffffffffffffffffffffffffffffffffff16146106a8576040517f08c379a000000000000000000000000000000000000000000000000000000000815260040161069f90611a09565b60405180910390fd5b6106b28282610fe3565b5050565b806106c0336107e6565b1015610701576040517f08c379a00000000000000000000000000000000000000000000000000000000081526004016106f890611a75565b60405180910390fd5b61070b3382611139565b50565b60086020528060005260406000206000915090508060000154908060010160009054906101000a900473ffffffffffffffffffffffffffffffffffffffff169080600201805461075d906118bd565b80601f0160208091040260200160405190810160405280929190818152602001828054610789906118bd565b80156107d65780601f106107ab576101008083540402835291602001916107d6565b820191906000526020600020905b8154815290600101906020018083116107b957829003601f168201915b5050505050908060030154905084565b60008060008373ffffffffffffffffffffffffffffffffffffffff1673ffffffffffffffffffffffffffffffffffffffff168152602001908152602001600020549050919050565b600560009054906101000a900473ffffffffffffffffffffffffffffffffffffffff1673ffffffffffffffffffffffffffffffffffffffff163373ffffffffffffffffffffffffffffffffffffffff16146108be576040517f08c379a00000000000000000000000000000000000000000000000000000000081526004016108b590611a09565b60405180910390fd5b600660008154809291906108d190611a95565b9190505550600060086000600654815260200190815260200160002090506006548160000181905550338160010160006101000a81548173ffffffffffffffffffffffffffffffffffffffff021916908373ffffffffffffffffffffffffffffffffffffffff1602179055508281600201908161094e9190611c89565b50818160030181905550505050565b60606004805461096c906118bd565b80601f0160208091040260200160405190810160405280929190818152602001828054610998906118bd565b80156109e55780601f106109ba576101008083540402835291602001916109e5565b820191906000526020600020905b8154815290600101906020018083116109c857829003601f168201915b5050505050905090565b6000806109fa610b10565b90506000610a088286610a89565b905083811015610a4d576040517f08c379a0000000000000000000000000000000000000000000000000000000008152600401610a4490611dcd565b60405180910390fd5b610a5a8286868403610b18565b60019250505092915050565b600080610a71610b10565b9050610a7e818585610d6d565b600191505092915050565b6000600160008473ffffffffffffffffffffffffffffffffffffffff1673ffffffffffffffffffffffffffffffffffffffff16815260200190815260200160002060008373ffffffffffffffffffffffffffffffffffffffff1673ffffffffffffffffffffffffffffffffffffffff16815260200190815260200160002054905092915050565b600033905090565b600073ffffffffffffffffffffffffffffffffffffffff168373ffffffffffffffffffffffffffffffffffffffff1603610b87576040517f08c379a0000000000000000000000000000000000000000000000000000000008152600401610b7e90611e5f565b60405180910390fd5b600073ffffffffffffffffffffffffffffffffffffffff168273ffffffffffffffffffffffffffffffffffffffff1603610bf6576040517f08c379a0000000000000000000000000000000000000000000000000000000008152600401610bed90611ef1565b60405180910390fd5b80600160008573ffffffffffffffffffffffffffffffffffffffff1673ffffffffffffffffffffffffffffffffffffffff16815260200190815260200160002060008473ffffffffffffffffffffffffffffffffffffffff1673ffffffffffffffffffffffffffffffffffffffff168152602001908152602001600020819055508173ffffffffffffffffffffffffffffffffffffffff168373ffffffffffffffffffffffffffffffffffffffff167f8c5be1e5ebec7d5bd14f71427d1e84f3dd0314c0f7b2291e5b200ac8c7c3b92583604051610cd491906114ef565b60405180910390a3505050565b6000610ced8484610a89565b90507fffffffffffffffffffffffffffffffffffffffffffffffffffffffffffffffff8114610d675781811015610d59576040517f08c379a0000000000000000000000000000000000000000000000000000000008152600401610d5090611f5d565b60405180910390fd5b610d668484848403610b18565b5b50505050565b600073ffffffffffffffffffffffffffffffffffffffff168373ffffffffffffffffffffffffffffffffffffffff1603610ddc576040517f08c379a0000000000000000000000000000000000000000000000000000000008152600401610dd390611fef565b60405180910390fd5b600073ffffffffffffffffffffffffffffffffffffffff168273ffffffffffffffffffffffffffffffffffffffff1603610e4b576040517f08c379a0000000000000000000000000000000000000000000000000000000008152600401610e4290612081565b60405180910390fd5b610e56838383611306565b60008060008573ffffffffffffffffffffffffffffffffffffffff1673ffffffffffffffffffffffffffffffffffffffff16815260200190815260200160002054905081811015610edc576040517f08c379a0000000000000000000000000000000000000000000000000000000008152600401610ed390612113565b60405180910390fd5b8181036000808673ffffffffffffffffffffffffffffffffffffffff1673ffffffffffffffffffffffffffffffffffffffff16815260200190815260200160002081905550816000808573ffffffffffffffffffffffffffffffffffffffff1673ffffffffffffffffffffffffffffffffffffffff168152602001908152602001600020600082825401925050819055508273ffffffffffffffffffffffffffffffffffffffff168473ffffffffffffffffffffffffffffffffffffffff167fddf252ad1be2c89b69c2b068fc378daa952ba7f163c4a11628f55a4df523b3ef84604051610fca91906114ef565b60405180910390a3610fdd84848461130b565b50505050565b600073ffffffffffffffffffffffffffffffffffffffff168273ffffffffffffffffffffffffffffffffffffffff1603611052576040517f08c379a00000000000000000000000000000000000000000000000000000000081526004016110499061217f565b60405180910390fd5b61105e60008383611306565b80600260008282546110709190611989565b92505081905550806000808473ffffffffffffffffffffffffffffffffffffffff1673ffffffffffffffffffffffffffffffffffffffff168152602001908152602001600020600082825401925050819055508173ffffffffffffffffffffffffffffffffffffffff16600073ffffffffffffffffffffffffffffffffffffffff167fddf252ad1be2c89b69c2b068fc378daa952ba7f163c4a11628f55a4df523b3ef8360405161112191906114ef565b60405180910390a36111356000838361130b565b5050565b600073ffffffffffffffffffffffffffffffffffffffff168273ffffffffffffffffffffffffffffffffffffffff16036111a8576040517f08c379a000000000000000000000000000000000000000000000000000000000815260040161119f90612211565b60405180910390fd5b6111b482600083611306565b60008060008473ffffffffffffffffffffffffffffffffffffffff1673ffffffffffffffffffffffffffffffffffffffff1681526020019081526020016000205490508181101561123a576040517f08c379a0000000000000000000000000000000000000000000000000000000008152600401611231906122a3565b60405180910390fd5b8181036000808573ffffffffffffffffffffffffffffffffffffffff1673ffffffffffffffffffffffffffffffffffffffff1681526020019081526020016000208190555081600260008282540392505081905550600073ffffffffffffffffffffffffffffffffffffffff168373ffffffffffffffffffffffffffffffffffffffff167fddf252ad1be2c89b69c2b068fc378daa952ba7f163c4a11628f55a4df523b3ef846040516112ed91906114ef565b60405180910390a36113018360008461130b565b505050565b505050565b505050565b600081519050919050565b600082825260208201905092915050565b60005b8381101561134a57808201518184015260208101905061132f565b60008484015250505050565b6000601f19601f8301169050919050565b600061137282611310565b61137c818561131b565b935061138c81856020860161132c565b61139581611356565b840191505092915050565b600060208201905081810360008301526113ba8184611367565b905092915050565b6000604051905090565b600080fd5b600080fd5b600073ffffffffffffffffffffffffffffffffffffffff82169050919050565b6000611401826113d6565b9050919050565b611411816113f6565b811461141c57600080fd5b50565b60008135905061142e81611408565b92915050565b6000819050919050565b61144781611434565b811461145257600080fd5b50565b6000813590506114648161143e565b92915050565b60008060408385031215611481576114806113cc565b5b600061148f8582860161141f565b92505060206114a085828601611455565b9150509250929050565b60008115159050919050565b6114bf816114aa565b82525050565b60006020820190506114da60008301846114b6565b92915050565b6114e981611434565b82525050565b600060208201905061150460008301846114e0565b92915050565b600080600060608486031215611523576115226113cc565b5b60006115318682870161141f565b93505060206115428682870161141f565b925050604061155386828701611455565b9150509250925092565b600060208284031215611573576115726113cc565b5b600061158184828501611455565b91505092915050565b611593816113f6565b82525050565b60006020820190506115ae600083018461158a565b92915050565b600060ff82169050919050565b6115ca816115b4565b82525050565b60006020820190506115e560008301846115c1565b92915050565b6115f4816115b4565b81146115ff57600080fd5b50565b600081359050611611816115eb565b92915050565b60006020828403121561162d5761162c6113cc565b5b600061163b84828501611602565b91505092915050565b600060808201905061165960008301876114e0565b611666602083018661158a565b81810360408301526116788185611367565b905061168760608301846114e0565b95945050505050565b6000602082840312156116a6576116a56113cc565b5b60006116b48482850161141f565b91505092915050565b600080fd5b600080fd5b7f4e487b7100000000000000000000000000000000000000000000000000000000600052604160045260246000fd5b6116ff82611356565b810181811067ffffffffffffffff8211171561171e5761171d6116c7565b5b80604052505050565b60006117316113c2565b905061173d82826116f6565b919050565b600067ffffffffffffffff82111561175d5761175c6116c7565b5b61176682611356565b9050602081019050919050565b82818337600083830152505050565b600061179561179084611742565b611727565b9050828152602081018484840111156117b1576117b06116c2565b5b6117bc848285611773565b509392505050565b600082601f8301126117d9576117d86116bd565b5b81356117e9848260208601611782565b91505092915050565b60008060408385031215611809576118086113cc565b5b600083013567ffffffffffffffff811115611827576118266113d1565b5b611833858286016117c4565b925050602061184485828601611455565b9150509250929050565b60008060408385031215611865576118646113cc565b5b60006118738582860161141f565b92505060206118848582860161141f565b9150509250929050565b7f4e487b7100000000000000000000000000000000000000000000000000000000600052602260045260246000fd5b600060028204905060018216806118d557607f821691505b6020821081036118e8576118e761188e565b5b50919050565b7f6964206973206f7574206f6620626f756e647300000000000000000000000000600082015250565b600061192460138361131b565b915061192f826118ee565b602082019050919050565b6000602082019050818103600083015261195381611917565b9050919050565b7f4e487b7100000000000000000000000000000000000000000000000000000000600052601160045260246000fd5b600061199482611434565b915061199f83611434565b92508282019050808211156119b7576119b661195a565b5b92915050565b7f4f6e6c79206f776e65722063616e206d696e7400000000000000000000000000600082015250565b60006119f360138361131b565b91506119fe826119bd565b602082019050919050565b60006020820190508181036000830152611a22816119e6565b9050919050565b7f496e73756666696369656e742062616c616e6365000000000000000000000000600082015250565b6000611a5f60148361131b565b9150611a6a82611a29565b602082019050919050565b60006020820190508181036000830152611a8e81611a52565b9050919050565b6000611aa082611434565b91507fffffffffffffffffffffffffffffffffffffffffffffffffffffffffffffffff8203611ad257611ad161195a565b5b600182019050919050565b60008190508160005260206000209050919050565b60006020601f8301049050919050565b600082821b905092915050565b600060088302611b3f7fffffffffffffffffffffffffffffffffffffffffffffffffffffffffffffffff82611b02565b611b498683611b02565b95508019841693508086168417925050509392505050565b6000819050919050565b6000611b86611b81611b7c84611434565b611b61565b611434565b9050919050565b6000819050919050565b611ba083611b6b565b611bb4611bac82611b8d565b848454611b0f565b825550505050565b600090565b611bc9611bbc565b611bd4818484611b97565b505050565b5b81811015611bf857611bed600082611bc1565b600181019050611bda565b5050565b601f821115611c3d57611c0e81611add565b611c1784611af2565b81016020851015611c26578190505b611c3a611c3285611af2565b830182611bd9565b50505b505050565b600082821c905092915050565b6000611c6060001984600802611c42565b1980831691505092915050565b6000611c798383611c4f565b9150826002028217905092915050565b611c9282611310565b67ffffffffffffffff811115611cab57611caa6116c7565b5b611cb582546118bd565b611cc0828285611bfc565b600060209050601f831160018114611cf35760008415611ce1578287015190505b611ceb8582611c6d565b865550611d53565b601f198416611d0186611add565b60005b82811015611d2957848901518255600182019150602085019450602081019050611d04565b86831015611d465784890151611d42601f891682611c4f565b8355505b6001600288020188555050505b505050505050565b7f45524332303a2064656372656173656420616c6c6f77616e63652062656c6f7760008201527f207a65726f000000000000000000000000000000000000000000000000000000602082015250565b6000611db760258361131b565b9150611dc282611d5b565b604082019050919050565b60006020820190508181036000830152611de681611daa565b9050919050565b7f45524332303a20617070726f76652066726f6d20746865207a65726f2061646460008201527f7265737300000000000000000000000000000000000000000000000000000000602082015250565b6000611e4960248361131b565b9150611e5482611ded565b604082019050919050565b60006020820190508181036000830152611e7881611e3c565b9050919050565b7f45524332303a20617070726f766520746f20746865207a65726f20616464726560008201527f7373000000000000000000000000000000000000000000000000000000000000602082015250565b6000611edb60228361131b565b9150611ee682611e7f565b604082019050919050565b60006020820190508181036000830152611f0a81611ece565b9050919050565b7f45524332303a20696e73756666696369656e7420616c6c6f77616e6365000000600082015250565b6000611f47601d8361131b565b9150611f5282611f11565b602082019050919050565b60006020820190508181036000830152611f7681611f3a565b9050919050565b7f45524332303a207472616e736665722066726f6d20746865207a65726f20616460008201527f6472657373000000000000000000000000000000000000000000000000000000602082015250565b6000611fd960258361131b565b9150611fe482611f7d565b604082019050919050565b6000602082019050818103600083015261200881611fcc565b9050919050565b7f45524332303a207472616e7366657220746f20746865207a65726f206164647260008201527f6573730000000000000000000000000000000000000000000000000000000000602082015250565b600061206b60238361131b565b91506120768261200f565b604082019050919050565b6000602082019050818103600083015261209a8161205e565b9050919050565b7f45524332303a207472616e7366657220616d6f756e742065786365656473206260008201527f616c616e63650000000000000000000000000000000000000000000000000000602082015250565b60006120fd60268361131b565b9150612108826120a1565b604082019050919050565b6000602082019050818103600083015261212c816120f0565b9050919050565b7f45524332303a206d696e7420746f20746865207a65726f206164647265737300600082015250565b6000612169601f8361131b565b915061217482612133565b602082019050919050565b600060208201905081810360008301526121988161215c565b9050919050565b7f45524332303a206275726e2066726f6d20746865207a65726f2061646472657360008201527f7300000000000000000000000000000000000000000000000000000000000000602082015250565b60006121fb60218361131b565b91506122068261219f565b604082019050919050565b6000602082019050818103600083015261222a816121ee565b9050919050565b7f45524332303a206275726e20616d6f756e7420657863656564732062616c616e60008201527f6365000000000000000000000000000000000000000000000000000000000000602082015250565b600061228d60228361131b565b915061229882612231565b604082019050919050565b600060208201905081810360008301526122bc81612280565b905091905056fea264697066735822122030fcb29fb789b97598545cb52039ce8edbb658eda2211349a466b0e8edf7aa2364736f6c63430008120033",
  "linkReferences": {},
  "deployedLinkReferences": {}
}