{
  "_format": "hh-sol-artifact-1",
  "contractName": "DegenToken",
  "sourceName": "contracts/DegenToken.sol",
  "abi": [
    {
      "inputs": [],
      "stateMutability": "nonpayable",
      "type": "constructor"
    },
    {
      "inputs": [],
      "name": "IncorrectbetEntryPrice",
      "type": "error"
    },
    {
      "inputs": [],
      "name": "NoParticipants",
      "type": "error"
    },
    {
      "anonymous": false,
      "inputs": [
        {
          "indexed": true,
          "internalType": "address",
          "name": "owner",
          "type": "address"
        },
        {
          "indexed": true,
          "internalType": "address",
          "name": "spender",
          "type": "address"
        },
        {
          "indexed": false,
          "internalType": "uint256",
          "name": "value",
          "type": "uint256"
        }
      ],
      "name": "Approval",
      "type": "event"
    },
    {
      "anonymous": false,
      "inputs": [
        {
          "indexed": true,
          "internalType": "address",
          "name": "previousOwner",
          "type": "address"
        },
        {
          "indexed": true,
          "internalType": "address",
          "name": "newOwner",
          "type": "address"
        }
      ],
      "name": "OwnershipTransferred",
      "type": "event"
    },
    {
      "anonymous": false,
      "inputs": [
        {
          "indexed": true,
          "internalType": "address",
          "name": "from",
          "type": "address"
        },
        {
          "indexed": true,
          "internalType": "address",
          "name": "to",
          "type": "address"
        },
        {
          "indexed": false,
          "internalType": "uint256",
          "name": "value",
          "type": "uint256"
        }
      ],
      "name": "Transfer",
      "type": "event"
    },
    {
      "inputs": [
        {
          "internalType": "uint256",
          "name": "",
          "type": "uint256"
        }
      ],
      "name": "ListOfPlayers",
      "outputs": [
        {
          "internalType": "address",
          "name": "",
          "type": "address"
        }
      ],
      "stateMutability": "view",
      "type": "function"
    },
    {
      "inputs": [
        {
          "internalType": "string",
          "name": "_name",
          "type": "string"
        },
        {
          "internalType": "uint256",
          "name": "_price",
          "type": "uint256"
        }
      ],
      "name": "addToMarket",
      "outputs": [],
      "stateMutability": "nonpayable",
      "type": "function"
    },
    {
      "inputs": [
        {
          "internalType": "address",
          "name": "owner",
          "type": "address"
        },
        {
          "internalType": "address",
          "name": "spender",
          "type": "address"
        }
      ],
      "name": "allowance",
      "outputs": [
        {
          "internalType": "uint256",
          "name": "",
          "type": "uint256"
        }
      ],
      "stateMutability": "view",
      "type": "function"
    },
    {
      "inputs": [
        {
          "internalType": "address",
          "name": "spender",
          "type": "address"
        },
        {
          "internalType": "uint256",
          "name": "amount",
          "type": "uint256"
        }
      ],
      "name": "approve",
      "outputs": [
        {
          "internalType": "bool",
          "name": "",
          "type": "bool"
        }
      ],
      "stateMutability": "nonpayable",
      "type": "function"
    },
    {
      "inputs": [
        {
          "internalType": "address",
          "name": "account",
          "type": "address"
        }
      ],
      "name": "balanceOf",
      "outputs": [
        {
          "internalType": "uint256",
          "name": "",
          "type": "uint256"
        }
      ],
      "stateMutability": "view",
      "type": "function"
    },
    {
      "inputs": [
        {
          "internalType": "uint256",
          "name": "value",
          "type": "uint256"
        }
      ],
      "name": "burn",
      "outputs": [],
      "stateMutability": "nonpayable",
      "type": "function"
    },
    {
      "inputs": [],
      "name": "decimals",
      "outputs": [
        {
          "internalType": "uint8",
          "name": "",
          "type": "uint8"
        }
      ],
      "stateMutability": "view",
      "type": "function"
    },
    {
      "inputs": [
        {
          "internalType": "address",
          "name": "spender",
          "type": "address"
        },
        {
          "internalType": "uint256",
          "name": "subtractedValue",
          "type": "uint256"
        }
      ],
      "name": "decreaseAllowance",
      "outputs": [
        {
          "internalType": "bool",
          "name": "",
          "type": "bool"
        }
      ],
      "stateMutability": "nonpayable",
      "type": "function"
    },
    {
      "inputs": [
        {
          "internalType": "address",
          "name": "spender",
          "type": "address"
        },
        {
          "internalType": "uint256",
          "name": "addedValue",
          "type": "uint256"
        }
      ],
      "name": "increaseAllowance",
      "outputs": [
        {
          "internalType": "bool",
          "name": "",
          "type": "bool"
        }
      ],
      "stateMutability": "nonpayable",
      "type": "function"
    },
    {
      "inputs": [
        {
          "internalType": "uint256",
          "name": "",
          "type": "uint256"
        }
      ],
      "name": "marketItems",
      "outputs": [
        {
          "internalType": "uint256",
          "name": "id",
          "type": "uint256"
        },
        {
          "internalType": "address",
          "name": "itemOwner",
          "type": "address"
        },
        {
          "internalType": "string",
          "name": "name",
          "type": "string"
        },
        {
          "internalType": "uint256",
          "name": "price",
          "type": "uint256"
        }
      ],
      "stateMutability": "view",
      "type": "function"
    },
    {
      "inputs": [
        {
          "internalType": "address",
          "name": "to",
          "type": "address"
        },
        {
          "internalType": "uint256",
          "name": "amount",
          "type": "uint256"
        }
      ],
      "name": "mint",
      "outputs": [],
      "stateMutability": "nonpayable",
      "type": "function"
    },
    {
      "inputs": [],
      "name": "name",
      "outputs": [
        {
          "internalType": "string",
          "name": "",
          "type": "string"
        }
      ],
      "stateMutability": "view",
      "type": "function"
    },
    {
      "inputs": [],
      "name": "owner",
      "outputs": [
        {
          "internalType": "address",
          "name": "",
          "type": "address"
        }
      ],
      "stateMutability": "view",
      "type": "function"
    },
    {
      "inputs": [
        {
          "internalType": "uint8",
          "name": "_id",
          "type": "uint8"
        }
      ],
      "name": "redeem",
      "outputs": [],
      "stateMutability": "nonpayable",
      "type": "function"
    },
    {
      "inputs": [],
      "name": "renounceOwnership",
      "outputs": [],
      "stateMutability": "nonpayable",
      "type": "function"
    },
    {
      "inputs": [],
      "name": "symbol",
      "outputs": [
        {
          "internalType": "string",
          "name": "",
          "type": "string"
        }
      ],
      "stateMutability": "view",
      "type": "function"
    },
    {
      "inputs": [],
      "name": "totalSupply",
      "outputs": [
        {
          "internalType": "uint256",
          "name": "",
          "type": "uint256"
        }
      ],
      "stateMutability": "view",
      "type": "function"
    },
    {
      "inputs": [
        {
          "internalType": "address",
          "name": "to",
          "type": "address"
        },
        {
          "internalType": "uint256",
          "name": "amount",
          "type": "uint256"
        }
      ],
      "name": "transfer",
      "outputs": [
        {
          "internalType": "bool",
          "name": "",
          "type": "bool"
        }
      ],
      "stateMutability": "nonpayable",
      "type": "function"
    },
    {
      "inputs": [
        {
          "internalType": "address",
          "name": "from",
          "type": "address"
        },
        {
          "internalType": "address",
          "name": "to",
          "type": "address"
        },
        {
          "internalType": "uint256",
          "name": "amount",
          "type": "uint256"
        }
      ],
      "name": "transferFrom",
      "outputs": [
        {
          "internalType": "bool",
          "name": "",
          "type": "bool"
        }
      ],
      "stateMutability": "nonpayable",
      "type": "function"
    },
    {
      "inputs": [
        {
          "internalType": "address",
          "name": "newOwner",
          "type": "address"
        }
      ],
      "name": "transferOwnership",
      "outputs": [],
      "stateMutability": "nonpayable",
      "type": "function"
    }
  ],
  "bytecode": "0x60806040523480156200001157600080fd5b506040518060400160405280600581526020017f446567656e0000000000000000000000000000000000000000000000000000008152506040518060400160405280600381526020017f44474e000000000000000000000000000000000000000000000000000000000081525081600390816200008f919062000412565b508060049081620000a1919062000412565b505050620000c4620000b8620000ca60201b60201c565b620000d260201b60201c565b620004f9565b600033905090565b6000600560009054906101000a900473ffffffffffffffffffffffffffffffffffffffff16905081600560006101000a81548173ffffffffffffffffffffffffffffffffffffffff021916908373ffffffffffffffffffffffffffffffffffffffff1602179055508173ffffffffffffffffffffffffffffffffffffffff168173ffffffffffffffffffffffffffffffffffffffff167f8be0079c531659141344cd1fd0a4f28419497f9722a3daafe3b4186f6b6457e060405160405180910390a35050565b600081519050919050565b7f4e487b7100000000000000000000000000000000000000000000000000000000600052604160045260246000fd5b7f4e487b7100000000000000000000000000000000000000000000000000000000600052602260045260246000fd5b600060028204905060018216806200021a57607f821691505b60208210810362000230576200022f620001d2565b5b50919050565b60008190508160005260206000209050919050565b60006020601f8301049050919050565b600082821b905092915050565b6000600883026200029a7fffffffffffffffffffffffffffffffffffffffffffffffffffffffffffffffff826200025b565b620002a686836200025b565b95508019841693508086168417925050509392505050565b6000819050919050565b6000819050919050565b6000620002f3620002ed620002e784620002be565b620002c8565b620002be565b9050919050565b6000819050919050565b6200030f83620002d2565b620003276200031e82620002fa565b84845462000268565b825550505050565b600090565b6200033e6200032f565b6200034b81848462000304565b505050565b5b8181101562000373576200036760008262000334565b60018101905062000351565b5050565b601f821115620003c2576200038c8162000236565b62000397846200024b565b81016020851015620003a7578190505b620003bf620003b6856200024b565b83018262000350565b50505b505050565b600082821c905092915050565b6000620003e760001984600802620003c7565b1980831691505092915050565b6000620004028383620003d4565b9150826002028217905092915050565b6200041d8262000198565b67ffffffffffffffff811115620004395762000438620001a3565b5b62000445825462000201565b6200045282828562000377565b600060209050601f8311600181146200048a576000841562000475578287015190505b620004818582620003f4565b865550620004f1565b601f1984166200049a8662000236565b60005b82811015620004c4578489015182556001820191506020850194506020810190506200049d565b86831015620004e45784890151620004e0601f891682620003d4565b8355505b6001600288020188555050505b505050505050565b6124e580620005096000396000f3fe608060405234801561001057600080fd5b506004361061012c5760003560e01c806351f28e14116100ad57806395d89b411161007157806395d89b4114610346578063a457c2d714610364578063a9059cbb14610394578063dd62ed3e146103c4578063f2fde38b146103f45761012c565b806351f28e141461029f57806370a08231146102d2578063715018a6146103025780637bc25d831461030c5780638da5cb5b146103285761012c565b8063313ce567116100f4578063313ce567146101fd57806332271faf1461021b578063395093511461023757806340c10f191461026757806342966c68146102835761012c565b806306fdde0314610131578063095ea7b31461014f57806318160ddd1461017f57806323b872dd1461019d578063242d2948146101cd575b600080fd5b610139610410565b60405161014691906114fa565b60405180910390f35b610169600480360381019061016491906115c4565b6104a2565b604051610176919061161f565b60405180910390f35b6101876104c5565b6040516101949190611649565b60405180910390f35b6101b760048036038101906101b29190611664565b6104cf565b6040516101c4919061161f565b60405180910390f35b6101e760048036038101906101e291906116b7565b6104fe565b6040516101f491906116f3565b60405180910390f35b61020561053d565b604051610212919061172a565b60405180910390f35b61023560048036038101906102309190611771565b610546565b005b610251600480360381019061024c91906115c4565b610646565b60405161025e919061161f565b60405180910390f35b610281600480360381019061027c91906115c4565b61067d565b005b61029d600480360381019061029891906116b7565b610693565b005b6102b960048036038101906102b491906116b7565b6106eb565b6040516102c9949392919061179e565b60405180910390f35b6102ec60048036038101906102e791906117ea565b6107c3565b6040516102f99190611649565b60405180910390f35b61030a61080b565b005b6103266004803603810190610321919061194c565b61081f565b005b6103306108c6565b60405161033d91906116f3565b60405180910390f35b61034e6108f0565b60405161035b91906114fa565b60405180910390f35b61037e600480360381019061037991906115c4565b610982565b60405161038b919061161f565b60405180910390f35b6103ae60048036038101906103a991906115c4565b6109f9565b6040516103bb919061161f565b60405180910390f35b6103de60048036038101906103d991906119a8565b610a1c565b6040516103eb9190611649565b60405180910390f35b61040e600480360381019061040991906117ea565b610aa3565b005b60606003805461041f90611a17565b80601f016020809104026020016040519081016040528092919081815260200182805461044b90611a17565b80156104985780601f1061046d57610100808354040283529160200191610498565b820191906000526020600020905b81548152906001019060200180831161047b57829003601f168201915b5050505050905090565b6000806104ad610b26565b90506104ba818585610b2e565b600191505092915050565b6000600254905090565b6000806104da610b26565b90506104e7858285610cf7565b6104f2858585610d83565b60019150509392505050565b6007818154811061050e57600080fd5b906000526020600020016000915054906101000a900473ffffffffffffffffffffffffffffffffffffffff1681565b60006012905090565b6006548160ff16111561058e576040517f08c379a000000000000000000000000000000000000000000000000000000000815260040161058590611a94565b60405180910390fd5b6105eb33600860008460ff16815260200190815260200160002060010160009054906101000a900473ffffffffffffffffffffffffffffffffffffffff16600860008560ff16815260200190815260200160002060030154610d83565b33600860008360ff16815260200190815260200160002060010160006101000a81548173ffffffffffffffffffffffffffffffffffffffff021916908373ffffffffffffffffffffffffffffffffffffffff16021790555050565b600080610651610b26565b90506106728185856106638589610a1c565b61066d9190611ae3565b610b2e565b600191505092915050565b610685610ff9565b61068f8282611077565b5050565b8061069d336107c3565b10156106de576040517f08c379a00000000000000000000000000000000000000000000000000000000081526004016106d590611b63565b60405180910390fd5b6106e833826111cd565b50565b60086020528060005260406000206000915090508060000154908060010160009054906101000a900473ffffffffffffffffffffffffffffffffffffffff169080600201805461073a90611a17565b80601f016020809104026020016040519081016040528092919081815260200182805461076690611a17565b80156107b35780601f10610788576101008083540402835291602001916107b3565b820191906000526020600020905b81548152906001019060200180831161079657829003601f168201915b5050505050908060030154905084565b60008060008373ffffffffffffffffffffffffffffffffffffffff1673ffffffffffffffffffffffffffffffffffffffff168152602001908152602001600020549050919050565b610813610ff9565b61081d600061139a565b565b610827610ff9565b6006600081548092919061083a90611b83565b9190505550600060086000600654815260200190815260200160002090506006548160000181905550338160010160006101000a81548173ffffffffffffffffffffffffffffffffffffffff021916908373ffffffffffffffffffffffffffffffffffffffff160217905550828160020190816108b79190611d77565b50818160030181905550505050565b6000600560009054906101000a900473ffffffffffffffffffffffffffffffffffffffff16905090565b6060600480546108ff90611a17565b80601f016020809104026020016040519081016040528092919081815260200182805461092b90611a17565b80156109785780601f1061094d57610100808354040283529160200191610978565b820191906000526020600020905b81548152906001019060200180831161095b57829003601f168201915b5050505050905090565b60008061098d610b26565b9050600061099b8286610a1c565b9050838110156109e0576040517f08c379a00000000000000000000000000000000000000000000000000000000081526004016109d790611ebb565b60405180910390fd5b6109ed8286868403610b2e565b60019250505092915050565b600080610a04610b26565b9050610a11818585610d83565b600191505092915050565b6000600160008473ffffffffffffffffffffffffffffffffffffffff1673ffffffffffffffffffffffffffffffffffffffff16815260200190815260200160002060008373ffffffffffffffffffffffffffffffffffffffff1673ffffffffffffffffffffffffffffffffffffffff16815260200190815260200160002054905092915050565b610aab610ff9565b600073ffffffffffffffffffffffffffffffffffffffff168173ffffffffffffffffffffffffffffffffffffffff1603610b1a576040517f08c379a0000000000000000000000000000000000000000000000000000000008152600401610b1190611f4d565b60405180910390fd5b610b238161139a565b50565b600033905090565b600073ffffffffffffffffffffffffffffffffffffffff168373ffffffffffffffffffffffffffffffffffffffff1603610b9d576040517f08c379a0000000000000000000000000000000000000000000000000000000008152600401610b9490611fdf565b60405180910390fd5b600073ffffffffffffffffffffffffffffffffffffffff168273ffffffffffffffffffffffffffffffffffffffff1603610c0c576040517f08c379a0000000000000000000000000000000000000000000000000000000008152600401610c0390612071565b60405180910390fd5b80600160008573ffffffffffffffffffffffffffffffffffffffff1673ffffffffffffffffffffffffffffffffffffffff16815260200190815260200160002060008473ffffffffffffffffffffffffffffffffffffffff1673ffffffffffffffffffffffffffffffffffffffff168152602001908152602001600020819055508173ffffffffffffffffffffffffffffffffffffffff168373ffffffffffffffffffffffffffffffffffffffff167f8c5be1e5ebec7d5bd14f71427d1e84f3dd0314c0f7b2291e5b200ac8c7c3b92583604051610cea9190611649565b60405180910390a3505050565b6000610d038484610a1c565b90507fffffffffffffffffffffffffffffffffffffffffffffffffffffffffffffffff8114610d7d5781811015610d6f576040517f08c379a0000000000000000000000000000000000000000000000000000000008152600401610d66906120dd565b60405180910390fd5b610d7c8484848403610b2e565b5b50505050565b600073ffffffffffffffffffffffffffffffffffffffff168373ffffffffffffffffffffffffffffffffffffffff1603610df2576040517f08c379a0000000000000000000000000000000000000000000000000000000008152600401610de99061216f565b60405180910390fd5b600073ffffffffffffffffffffffffffffffffffffffff168273ffffffffffffffffffffffffffffffffffffffff1603610e61576040517f08c379a0000000000000000000000000000000000000000000000000000000008152600401610e5890612201565b60405180910390fd5b610e6c838383611460565b60008060008573ffffffffffffffffffffffffffffffffffffffff1673ffffffffffffffffffffffffffffffffffffffff16815260200190815260200160002054905081811015610ef2576040517f08c379a0000000000000000000000000000000000000000000000000000000008152600401610ee990612293565b60405180910390fd5b8181036000808673ffffffffffffffffffffffffffffffffffffffff1673ffffffffffffffffffffffffffffffffffffffff16815260200190815260200160002081905550816000808573ffffffffffffffffffffffffffffffffffffffff1673ffffffffffffffffffffffffffffffffffffffff168152602001908152602001600020600082825401925050819055508273ffffffffffffffffffffffffffffffffffffffff168473ffffffffffffffffffffffffffffffffffffffff167fddf252ad1be2c89b69c2b068fc378daa952ba7f163c4a11628f55a4df523b3ef84604051610fe09190611649565b60405180910390a3610ff3848484611465565b50505050565b611001610b26565b73ffffffffffffffffffffffffffffffffffffffff1661101f6108c6565b73ffffffffffffffffffffffffffffffffffffffff1614611075576040517f08c379a000000000000000000000000000000000000000000000000000000000815260040161106c906122ff565b60405180910390fd5b565b600073ffffffffffffffffffffffffffffffffffffffff168273ffffffffffffffffffffffffffffffffffffffff16036110e6576040517f08c379a00000000000000000000000000000000000000000000000000000000081526004016110dd9061236b565b60405180910390fd5b6110f260008383611460565b80600260008282546111049190611ae3565b92505081905550806000808473ffffffffffffffffffffffffffffffffffffffff1673ffffffffffffffffffffffffffffffffffffffff168152602001908152602001600020600082825401925050819055508173ffffffffffffffffffffffffffffffffffffffff16600073ffffffffffffffffffffffffffffffffffffffff167fddf252ad1be2c89b69c2b068fc378daa952ba7f163c4a11628f55a4df523b3ef836040516111b59190611649565b60405180910390a36111c960008383611465565b5050565b600073ffffffffffffffffffffffffffffffffffffffff168273ffffffffffffffffffffffffffffffffffffffff160361123c576040517f08c379a0000000000000000000000000000000000000000000000000000000008152600401611233906123fd565b60405180910390fd5b61124882600083611460565b60008060008473ffffffffffffffffffffffffffffffffffffffff1673ffffffffffffffffffffffffffffffffffffffff168152602001908152602001600020549050818110156112ce576040517f08c379a00000000000000000000000000000000000000000000000000000000081526004016112c59061248f565b60405180910390fd5b8181036000808573ffffffffffffffffffffffffffffffffffffffff1673ffffffffffffffffffffffffffffffffffffffff1681526020019081526020016000208190555081600260008282540392505081905550600073ffffffffffffffffffffffffffffffffffffffff168373ffffffffffffffffffffffffffffffffffffffff167fddf252ad1be2c89b69c2b068fc378daa952ba7f163c4a11628f55a4df523b3ef846040516113819190611649565b60405180910390a361139583600084611465565b505050565b6000600560009054906101000a900473ffffffffffffffffffffffffffffffffffffffff16905081600560006101000a81548173ffffffffffffffffffffffffffffffffffffffff021916908373ffffffffffffffffffffffffffffffffffffffff1602179055508173ffffffffffffffffffffffffffffffffffffffff168173ffffffffffffffffffffffffffffffffffffffff167f8be0079c531659141344cd1fd0a4f28419497f9722a3daafe3b4186f6b6457e060405160405180910390a35050565b505050565b505050565b600081519050919050565b600082825260208201905092915050565b60005b838110156114a4578082015181840152602081019050611489565b60008484015250505050565b6000601f19601f8301169050919050565b60006114cc8261146a565b6114d68185611475565b93506114e6818560208601611486565b6114ef816114b0565b840191505092915050565b6000602082019050818103600083015261151481846114c1565b905092915050565b6000604051905090565b600080fd5b600080fd5b600073ffffffffffffffffffffffffffffffffffffffff82169050919050565b600061155b82611530565b9050919050565b61156b81611550565b811461157657600080fd5b50565b60008135905061158881611562565b92915050565b6000819050919050565b6115a18161158e565b81146115ac57600080fd5b50565b6000813590506115be81611598565b92915050565b600080604083850312156115db576115da611526565b5b60006115e985828601611579565b92505060206115fa858286016115af565b9150509250929050565b60008115159050919050565b61161981611604565b82525050565b60006020820190506116346000830184611610565b92915050565b6116438161158e565b82525050565b600060208201905061165e600083018461163a565b92915050565b60008060006060848603121561167d5761167c611526565b5b600061168b86828701611579565b935050602061169c86828701611579565b92505060406116ad868287016115af565b9150509250925092565b6000602082840312156116cd576116cc611526565b5b60006116db848285016115af565b91505092915050565b6116ed81611550565b82525050565b600060208201905061170860008301846116e4565b92915050565b600060ff82169050919050565b6117248161170e565b82525050565b600060208201905061173f600083018461171b565b92915050565b61174e8161170e565b811461175957600080fd5b50565b60008135905061176b81611745565b92915050565b60006020828403121561178757611786611526565b5b60006117958482850161175c565b91505092915050565b60006080820190506117b3600083018761163a565b6117c060208301866116e4565b81810360408301526117d281856114c1565b90506117e1606083018461163a565b95945050505050565b600060208284031215611800576117ff611526565b5b600061180e84828501611579565b91505092915050565b600080fd5b600080fd5b7f4e487b7100000000000000000000000000000000000000000000000000000000600052604160045260246000fd5b611859826114b0565b810181811067ffffffffffffffff8211171561187857611877611821565b5b80604052505050565b600061188b61151c565b90506118978282611850565b919050565b600067ffffffffffffffff8211156118b7576118b6611821565b5b6118c0826114b0565b9050602081019050919050565b82818337600083830152505050565b60006118ef6118ea8461189c565b611881565b90508281526020810184848401111561190b5761190a61181c565b5b6119168482856118cd565b509392505050565b600082601f83011261193357611932611817565b5b81356119438482602086016118dc565b91505092915050565b6000806040838503121561196357611962611526565b5b600083013567ffffffffffffffff8111156119815761198061152b565b5b61198d8582860161191e565b925050602061199e858286016115af565b9150509250929050565b600080604083850312156119bf576119be611526565b5b60006119cd85828601611579565b92505060206119de85828601611579565b9150509250929050565b7f4e487b7100000000000000000000000000000000000000000000000000000000600052602260045260246000fd5b60006002820490506001821680611a2f57607f821691505b602082108103611a4257611a416119e8565b5b50919050565b7f6964206973206f7574206f6620626f756e647300000000000000000000000000600082015250565b6000611a7e601383611475565b9150611a8982611a48565b602082019050919050565b60006020820190508181036000830152611aad81611a71565b9050919050565b7f4e487b7100000000000000000000000000000000000000000000000000000000600052601160045260246000fd5b6000611aee8261158e565b9150611af98361158e565b9250828201905080821115611b1157611b10611ab4565b5b92915050565b7f496e73756666696369656e742062616c616e6365000000000000000000000000600082015250565b6000611b4d601483611475565b9150611b5882611b17565b602082019050919050565b60006020820190508181036000830152611b7c81611b40565b9050919050565b6000611b8e8261158e565b91507fffffffffffffffffffffffffffffffffffffffffffffffffffffffffffffffff8203611bc057611bbf611ab4565b5b600182019050919050565b60008190508160005260206000209050919050565b60006020601f8301049050919050565b600082821b905092915050565b600060088302611c2d7fffffffffffffffffffffffffffffffffffffffffffffffffffffffffffffffff82611bf0565b611c378683611bf0565b95508019841693508086168417925050509392505050565b6000819050919050565b6000611c74611c6f611c6a8461158e565b611c4f565b61158e565b9050919050565b6000819050919050565b611c8e83611c59565b611ca2611c9a82611c7b565b848454611bfd565b825550505050565b600090565b611cb7611caa565b611cc2818484611c85565b505050565b5b81811015611ce657611cdb600082611caf565b600181019050611cc8565b5050565b601f821115611d2b57611cfc81611bcb565b611d0584611be0565b81016020851015611d14578190505b611d28611d2085611be0565b830182611cc7565b50505b505050565b600082821c905092915050565b6000611d4e60001984600802611d30565b1980831691505092915050565b6000611d678383611d3d565b9150826002028217905092915050565b611d808261146a565b67ffffffffffffffff811115611d9957611d98611821565b5b611da38254611a17565b611dae828285611cea565b600060209050601f831160018114611de15760008415611dcf578287015190505b611dd98582611d5b565b865550611e41565b601f198416611def86611bcb565b60005b82811015611e1757848901518255600182019150602085019450602081019050611df2565b86831015611e345784890151611e30601f891682611d3d565b8355505b6001600288020188555050505b505050505050565b7f45524332303a2064656372656173656420616c6c6f77616e63652062656c6f7760008201527f207a65726f000000000000000000000000000000000000000000000000000000602082015250565b6000611ea5602583611475565b9150611eb082611e49565b604082019050919050565b60006020820190508181036000830152611ed481611e98565b9050919050565b7f4f776e61626c653a206e6577206f776e657220697320746865207a65726f206160008201527f6464726573730000000000000000000000000000000000000000000000000000602082015250565b6000611f37602683611475565b9150611f4282611edb565b604082019050919050565b60006020820190508181036000830152611f6681611f2a565b9050919050565b7f45524332303a20617070726f76652066726f6d20746865207a65726f2061646460008201527f7265737300000000000000000000000000000000000000000000000000000000602082015250565b6000611fc9602483611475565b9150611fd482611f6d565b604082019050919050565b60006020820190508181036000830152611ff881611fbc565b9050919050565b7f45524332303a20617070726f766520746f20746865207a65726f20616464726560008201527f7373000000000000000000000000000000000000000000000000000000000000602082015250565b600061205b602283611475565b915061206682611fff565b604082019050919050565b6000602082019050818103600083015261208a8161204e565b9050919050565b7f45524332303a20696e73756666696369656e7420616c6c6f77616e6365000000600082015250565b60006120c7601d83611475565b91506120d282612091565b602082019050919050565b600060208201905081810360008301526120f6816120ba565b9050919050565b7f45524332303a207472616e736665722066726f6d20746865207a65726f20616460008201527f6472657373000000000000000000000000000000000000000000000000000000602082015250565b6000612159602583611475565b9150612164826120fd565b604082019050919050565b600060208201905081810360008301526121888161214c565b9050919050565b7f45524332303a207472616e7366657220746f20746865207a65726f206164647260008201527f6573730000000000000000000000000000000000000000000000000000000000602082015250565b60006121eb602383611475565b91506121f68261218f565b604082019050919050565b6000602082019050818103600083015261221a816121de565b9050919050565b7f45524332303a207472616e7366657220616d6f756e742065786365656473206260008201527f616c616e63650000000000000000000000000000000000000000000000000000602082015250565b600061227d602683611475565b915061228882612221565b604082019050919050565b600060208201905081810360008301526122ac81612270565b9050919050565b7f4f776e61626c653a2063616c6c6572206973206e6f7420746865206f776e6572600082015250565b60006122e9602083611475565b91506122f4826122b3565b602082019050919050565b60006020820190508181036000830152612318816122dc565b9050919050565b7f45524332303a206d696e7420746f20746865207a65726f206164647265737300600082015250565b6000612355601f83611475565b91506123608261231f565b602082019050919050565b6000602082019050818103600083015261238481612348565b9050919050565b7f45524332303a206275726e2066726f6d20746865207a65726f2061646472657360008201527f7300000000000000000000000000000000000000000000000000000000000000602082015250565b60006123e7602183611475565b91506123f28261238b565b604082019050919050565b60006020820190508181036000830152612416816123da565b9050919050565b7f45524332303a206275726e20616d6f756e7420657863656564732062616c616e60008201527f6365000000000000000000000000000000000000000000000000000000000000602082015250565b6000612479602283611475565b91506124848261241d565b604082019050919050565b600060208201905081810360008301526124a88161246c565b905091905056fea26469706673582212209c81d7a136673589775359d1f85ccbdda63ebdb2491c899da3c1a5ed78764e0664736f6c63430008120033",
  "linkReferences": {},
  "deployedLinkReferences": {}
}